:100000000C94A2040C94C1040C94C1040C94BE245E
:100010000C94C1040C94C1040C94C1040C94C1044C
:100020000C94C1040C94C1040C94C1040C94C1043C
:100030000C94C1040C94C1040C94C1040C94C1042C
:100040000C94C1040C94C1040C94C1040C94C1041C
:100050000C949E240C94C1040C94C1040C9454245C
:100060000C94C1040C94C1040C94C1040C94C104FC
:100070000C94C1040C94C1040C94C1040C94C104EC
:100080000C94C1040C94C1040C94C1040C94C104DC
:100090000C94C1040C94C1040C94C1040C94C104CC
:1000A0000C94C1040C94C1040C94C1040C94C104BC
:1000B0000C94C1040C94C1040C94C1040C94C104AC
:1000C0000C94C1040C94C1040C94C1040C94C1049C
:1000D0000C94C1040C94C1040C94C1040C94C1048C
:1000E0000C94C1040C94C1040C94C1040C94C1047C
:1000F0000C94C1040C94C1040C94C1040C94C1046C
:100100000C94C1040C94C1040C94C1040C94C1045B
:100110000C94C1040C94C1040C94C1040C94C1044B
:10012000084AD73B3BCE016E84BCBFFDC12F3D6C5E
:1001300074319ABD56833DDA3D00C77F11BED9E4C4
:10014000BB4C3E916BAAAABE000000803F076342F1
:1001500036B79BD8A71A39685618AEBAAB558C1D5E
:100160003CB7CC5763BD6DEDFD753EF6177231BFE0
:10017000000000803F05A84CCDB2D44EB93836A956
:10018000020C50B9918688083CA6AAAA2ABE000093
:1001900000803F08000000BE922449123EABAAAA8C
:1001A0002ABECDCCCC4C3E00000080BEABAAAAAA91
:1001B0003E00000000BF000000803F000000000083
:1001C000084178D3BB4387D1133D190E3CC3BD42D0
:1001D00082AD2B3E68EC8276BED98FE1A93E4C8081
:1001E000EFFFBE01C4FF7F3F000000000000696E0A
:1001F0006600494E46006E616E004E414E004E4113
:100200004E494E495459494E46CDCCCC3D0AD72390
:100210003C17B7D13877CC2B329595E6241FB14FD8
:100220000A000020410000C84200401C4620BCBE1D
:100230004CCA1B0E5AAEC59D7400407A10F35A008A
:10024000A0724E18090010A5D4E80000E8764817FF
:100250000000E40B54020000CA9A3B000000E1F5E4
:1002600005000080969800000040420F000000A0AA
:100270008601000000102700000000E803000000D5
:10028000006400000000000A0000000000010000FF
:100290000000002C76D888DC674F0823DFC1DFAE72
:1002A00059E1B1B796E5E3E453C63AE6519976963B
:1002B000E8E6C28426EB898C9B62ED407C6FFCEF04
:1002C000BC9C9F40F2BAA56FA5F490055A2AF75C32
:1002D000936B6CF9676DC11BFCE0E40D47FEF520E4
:1002E000E6B500D0ED902E030094357705008084AC
:1002F0001E080000204E0A000000C80C33333333C0
:100300000F986E12831141EF8D2114893BE655162B
:10031000CFFEE6DB18D1844B381BF77C1D901DA463
:10032000BBE424203284725E228100C9F124ECA156
:10033000E53D274572726F72204C6F6164696E678C
:10034000004572726F7220536176696E6700426178
:100350006420706172616D65746572004572726FC0
:100360007220696E2056414C20696E70757400428F
:10037000616420737472696E6720696E64657800C9
:1003800042616420617272617920696E64657800EF
:1003900057726F6E672061727261792064696D7344
:1003A0000052455455524E20776974686F75742019
:1003B000474F535542004D697373696E6720544827
:1003C000454E20696E2049460053544F50207374A7
:1003D0006174656D656E74004E455854207769747C
:1003E000686F757420464F5200427265616B2070D1
:1003F00072657373656400426164206C696E652088
:100400006E756D6265720042616420636F6D6D612F
:100410006E64005661726961626C65206E6F742053
:10042000666F756E6400446976206279207A657221
:100430006F004F7574206F66206D656D6F72790067
:100440004C696E65206E756D62657220746F6F20E9
:1004500062696700537472696E67206578707220F4
:100460006578706563746564004E756D6572696367
:1004700020657870722065787065637465640045E6
:1004800072726F7220696E2065787072004D6973A8
:1004900073696E6720627261636B657400556E7478
:1004A00065726D696E6174656420737472696E67DC
:1004B00000556E657870656374656420696E70754B
:1004C00074004C696E6520746F6F206C6F6E6700EE
:1004D000426164206E756D626572004F4B000101D0
:1004E000637801110128633203C0F80002C30402DB
:1004F000C40502D01D02B30002B58B0138023A02D6
:1005000002360002B09F05F01212121201200129DA
:1005100000000000000000260029002C002F0032FF
:1005200000000000000000000000000000000000CB
:1005300000000000000000000000000000000000BB
:10054000000000CB0200CD0200CF0200D10200D398
:100550000200D50200E00200DA0200D70200D90250
:1005600000DC0200DF0200E20240E40200E60200DA
:10057000E802C03603C0EC0240F00240F60240FA46
:100580000240FF02400303400803400C03401103F4
:10059000401703401C03401F03C02403092803091C
:1005A0002C0300F202013003053503400503C03976
:1005B00003C03E03404303C04703404B0340510385
:1005C000405803405C030E62030E69030F6E034044
:1005D0007203407803408103408503408D0300CFC0
:1005E0000340D503409303019B0301A40340A803E8
:1005F00040AF0301B30301B70301BB0301BE030115
:10060000C20301C60301CA0340CE0340D40340DA4B
:100610000300DF0301000000090A0B0000030700CC
:1006200000000000000000000200000000000000C8
:1006300000000000000000040500000000000000B1
:1006400000065F060000070300070300247E247EE7
:100650002400242B6A1200006313086463003649E7
:1006600056205000000703000000003E410000003B
:1006700000413E000000083E1C3E080008083E08FD
:10068000080000E06000000008080808080000609A
:10069000600000002010080402003E5149453E0061
:1006A00000427F40000062514949460022494949C1
:1006B00036001814127F10002F49494931003C4A76
:1006C000494930000171090503003649494936009E
:1006D000064949291E00006C6C00000000EC6C000B
:1006E0000000081422410000242424242400004196
:1006F000221408000201590906003E415D551E0002
:100700007E1111117E007F49494936003E41414129
:1007100022007F4141413E007F49494941007F0914
:10072000090901003E4149497A007F0808087F0015
:1007300000417F410000304040403F007F081422CC
:1007400041007F40404040007F0204027F007F0262
:1007500004087F003E4141413E007F09090906002F
:100760003E4151215E007F09091966002649494929
:10077000320001017F0101003F4040403F001F2047
:1007800040201F003F403C403F00631408146300BA
:10079000070870080700714945430000007F414188
:1007A00000000204081020000041417F0000040204
:1007B00001020400808080808000000307000000A8
:1007C0002054545478007F4444443800384444440E
:1007D0002800384444447F00385454540800087EAC
:1007E0000909000018A4A4A47C007F040478000078
:1007F00000007D4000004080847D00007F10284480
:10080000000000007F4000007C04180478007C0495
:1008100004780000384444443800FC444444380020
:1008200038444444FC0044784404080008545454B8
:100830002000043E442400003C40207C00001C209A
:1008400040201C003C6030603C006C10106C0000CC
:100850009CA0603C00006454544C0000083E4141A0
:1008600000000000770000000041413E0800020146
:10087000020100003C2623263C62797465732066E1
:100880007265650000000000250000002B002E00AE
:1008900031003400000000000000000000000000F3
:1008A0000000240000002A002D003000330000006A
:1008B0000000000000000000050505050505050510
:1008C00002020202020204040707070704040404E8
:1008D00004040606060606060606020201020408CD
:1008E00010204080201001040802020101020420AF
:1008F000040810204080010204081020408040803D
:1009000041726475696E6F20424153494300DB04B4
:10091000D004C204B1049D048D047F04690454040E
:1009200040043204260413040704F703E903D80340
:10093000C903B603A103900380036F035C034E0356
:100940004103330311241FBECFEFD1E4DEBFCDBF7F
:1009500013E0A0E0B2E0ECEDFCE600E00BBF02C06B
:1009600007900D92A43EB107D9F725E2A4EEB3E0BB
:1009700001C01D92AD39B207E1F70E94CD240C945D
:100980006C360C9400008150823108F058C0E82F7A
:10099000F0E0E353FB4F0C94F132ED04F104DF047B
:1009A000E504E9041F05F404FA04FE04040508053F
:1009B0000C05120516051F051A0520052405809152
:1009C00080008F77809380000895809180008F7DD4
:1009D000F9CF80918000877FF5CF84B58F7784BD74
:1009E000089584B58F7DFBCF8091B0008F77809381
:1009F000B00008958091B0008F7DF9CF8091900074
:100A00008F77809390000895809190008F7DF9CF2B
:100A100080919000877FF5CF8091A0008F778093A1
:100A2000A00008958091A0008F7DF9CF8091A00053
:100A3000877FF5CF809120018F77809320010895E3
:100A4000809120018F7DF9CF80912001877FF5CFA4
:100A5000CF93DF9390E0FC01E452F74F2491885448
:100A6000974FFC0184918823C9F090E0880F991F6B
:100A7000FC01E256F74FA591B491FC01EC57F74FFA
:100A8000C591D49161110DC09FB7F8948C912095B8
:100A900082238C938881282328839FBFDF91CF9165
:100AA0000895623051F49FB7F8943C91822F80955D
:100AB00083238C93E8812E2BEFCF8FB7F894EC91A2
:100AC0002E2B2C938FBFEACF3FB7F8948091270548
:100AD00090912805A0912905B0912A0526B5A89BDB
:100AE00005C02F3F19F00196A11DB11D3FBFBA2FC0
:100AF000A92F982F8827BC01CD01620F711D811D80
:100B0000911D42E0660F771F881F991F4A95D1F704
:100B100008958F929F92AF92BF92CF92DF92EF9201
:100B2000FF926B017C010E9464054B015C01C114C2
:100B3000D104E104F104B9F00E946405681979094F
:100B40008A099B09683E73408105910580F321E085
:100B5000C21AD108E108F10888EE880E83E0981ED9
:100B6000A11CB11CE4CFFF90EF90DF90CF90BF901D
:100B7000AF909F908F900895809144259091452546
:100B80009C012751310922303105F8F08E30910552
:100B9000F9F081319105E1F0285F3F4F22303105B6
:100BA000D0F02350310922303105A8F0285F3F4FA3
:100BB0002230310598F0225031092230310510F0F1
:100BC0008E9779F488E290E0089585E090E00895AA
:100BD0008AE090E0089584E190E008958EE190E04D
:100BE00008958FEF9FEF0895809107049091080476
:100BF000FC01EB5CFA4F208131812E5F3F4F821B5D
:100C0000930B9093080480930704895C9A4F08958E
:100C100080910704909108040497909308048093AE
:100C20000704895C9A4FFC01608171818281938104
:100C300008958F929F92AF92BF92CF92DF92EF92E0
:100C4000FF920F931F93CF93DF93EC015B01E88139
:100C5000F981C190D190F983E8830E9408060E942F
:100C6000A93084E190E0C616D706B9F5F12CE12C45
:100C700088248394912C10E000E0EC14FD0444F5EA
:100C80000E9408060E94A930E881F981A191B191E2
:100C9000F983E883161617066CF5A617B70754F103
:100CA000AB0141505109489D9001499D300D589D1F
:100CB000300D1124020F131FC4018A9F40018B9F26
:100CC000900C9A9F900C11249FEFE91AF90AD5CF46
:100CD000F5011183008390E080E0DF91CF911F91B7
:100CE0000F91FF90EF90DF90CF90BF90AF909F90CB
:100CF0008F90089585E190E0F0CF409107045091E6
:100D000008049A012C5F3F4FE0919925F0919A25B4
:100D1000E217F30770F0FA01E95CFA4F6083718320
:100D200082839383309308042093070481E090E04A
:100D3000089590E080E00895CF93DF931F92CDB7A0
:100D4000DEB7898389818EBD00000DB407FEFDCF1B
:100D50008EB50F90DF91CF910895982FFB01DA01A6
:100D60008770907F903D29F128F4903A41F0903BB4
:100D7000A1F00895903E49F1903F99F10895232BF9
:100D800049F424E330E02D933C9323E330E03183B6
:100D90002083089522E330E0F6CF232B39F425E2B7
:100DA00030E02D933C9324E230E0F1CF23E230E0B9
:100DB000F8CF232B39F42BE230E02D933C932AE239
:100DC00030E0E5CF29E230E0F8CF232B39F42EE2F2
:100DD00030E02D933C932DE230E0D9CF2CE230E08F
:100DE000F8CF232B39F421E330E02D933C9320E31B
:100DF00030E0CDCF2FE230E0F8CF1F93CF93DF93D9
:100E000000D000D0CDB7DEB7162F30E020E0AE0125
:100E10004F5F5F4FBE016D5F7F4F0E94AD06E9815E
:100E2000FA81111115C0408121E030E0B90102C002
:100E3000660F771F8A95E2F7CB0180958423808324
:100E40000F900F900F900F90DF91CF911F91089509
:100E5000908121E030E001C0220F8A95EAF7892FC6
:100E6000822BEDCF1F93CF93DF93C72FD82F60E056
:100E700083ED0E94FD0685E00E949C0680E00E94B2
:100E80009C06182F61E083ED0E94FD0610FD3BC01B
:100E900060E083ED0E94FD0686E00E949C0661E012
:100EA00083ED0E94FD0660E083ED0E94FD0680E276
:100EB0000E949C068D2F0E949C068C2F0E949C06EF
:100EC00080E00E949C0661E083ED0E94FD0660E0E8
:100ED00083ED0E94FD06C8E7D0E011E010FF16C0C8
:100EE00085E00E949C0680E00E949C06182F61E02D
:100EF00070E080E090E00E948905219779F761E039
:100F000083ED0E94FD0690E080E006C061E083ED85
:100F10000E94FD0681E090E0DF91CF911F9108953E
:100F20001F93CF93DF93EB01182F60E083ED0E94B6
:100F3000FD0683E00E949C06812F0E949C068D2F57
:100F40000E949C068C2F0E949C0680E00E949C06BA
:100F5000C82F61E083ED0E94FD068C2FDF91CF91B9
:100F60001F910895FF920F931F93CF93DF93C72F85
:100F7000D82F8A0160E083ED0E94FD0685E00E9483
:100F80009C0680E00E949C06F82E61E083ED0E94A2
:100F9000FD06F0FC51C060E083ED0E94FD0681E09B
:100FA0000E949C0680E00E949C0661E083ED0E9406
:100FB000FD0660E083ED0E94FD0686E00E949C062F
:100FC00061E083ED0E94FD0660E083ED0E94FD0676
:100FD00082E00E949C068D2F0E949C068C2F0E940E
:100FE0009C0680E00E949C06E801139589910E946E
:100FF0009C06C017D107D1F761E083ED0E94FD0682
:1010000060E083ED0E94FD06C4E1D0E011E010FF36
:1010100016C085E00E949C0680E00E949C06182F66
:1010200061E070E080E090E00E948905219779F707
:1010300061E083ED0E94FD0690E080E006C061E083
:1010400083ED0E94FD0681E090E0DF91CF911F913A
:101050000F91FF9008951F93CF93DF93182FC091A6
:101060002D0560E08C2F0E94FD06D0912C0560E0DC
:101070008D2F0E94FD06812F0E949C0661E08D2F1E
:101080000E94FD0661E08C2FDF91CF911F910C949F
:10109000FD06DF92EF92FF920F931F93CF93DF93A2
:1010A000D82EE92E8B01F0902D0560E08F2D0E9447
:1010B000FD06CD2DDE2D0C0F1D1F89910E949C0673
:1010C000C017D107D1F761E08F2DDF91CF911F912C
:1010D0000F91FF90EF90DF900C94FD06CF92DF927E
:1010E000EF92FF920F931F93CF93DF9300D000D026
:1010F000CDB7DEB78C01E62E6A01F22E8AE20E949D
:101100002B08198223E030E0C801B9010E94DD32CA
:101110006A831B82C8018C0D9D1D0197B9010E9435
:10112000DD326C8364E070E0CE0101960E944908D4
:101130008BE20E942B081982EA821B82FA94FE0C31
:10114000FC8264E070E0CE0101960E9449088CE2C6
:101150000E942B080F900F900F900F90DF91CF916E
:101160001F910F91FF90EF90DF90CF9008951F9304
:10117000CF93DF9300D000D0CDB7DEB7162F30E08D
:1011800020E0AE014F5F5F4FBE016D5F7F4F0E9459
:10119000AD06EB81FC81113029F1408121E030E086
:1011A000B90102C0660F771F8A95E2F7CB011230B2
:1011B00059F08095842380830F900F900F900F90AB
:1011C000DF91CF911F910895942F982B9083E981FF
:1011D000FA819081982B9083EB81FC81908180959E
:1011E0008923E9CF908121E030E001C0220F8A9568
:1011F000EAF7892F822BDFCF7F928F929F92AF9257
:10120000BF92CF92DF92EF92FF920F931F93CF93F3
:10121000DF9300D000D0CDB7DEB702EC12E062E081
:10122000F80181918F010E94B708F2E0083C1F0786
:10123000B1F78AE0EEEEF3E0A4EEB3E001900D9298
:101240008A95E1F79EEEE92E93E0F92E28EBA22E87
:1012500022E0B22E8701F8011082F50171905F0142
:1012600061E0872D0E94B70860E0872D0E94FD068F
:1012700082EC882E82E0982ED12CC12C21E030E027
:10128000AE014D5F5F4FBE016F5F7F4FF4018191F3
:101290004F010E94AD06EB81FC81208130E002C04D
:1012A000359527958A95E2F720FD0BC021E030E0C7
:1012B0000C2C01C0220F0A94EAF7F8018081822BDE
:1012C0008083FFEFCF1ADF0A86E0C816D104B1F69B
:1012D00061E0872D0E94FD0660E0872D0E94B7081F
:1012E0000F5F1F4FE3E0083F1E0709F0B4CF709176
:1012F000EE03172F18707071A4EEB3E030E020E019
:1013000080E00AE0F701D1907F0150E040E061E029
:10131000C22E9D2D962396131DC09C919623D1F429
:10132000C11004C09DEF940F9230A0F088E792E0C6
:10133000111106C080E092E0711102C08CE392E0CE
:10134000049FF001059FF00D1124E80FF91FE20F33
:10135000F31F8081660F4F5F5F4F46305105C9F61E
:101360002F5F3F4F11962A30310561F60F900F9095
:101370000F900F90DF91CF911F910F91FF90EF9001
:10138000DF90CF90BF90AF909F908F907F90089507
:10139000DF92EF92FF920F931F93CF93DF93CDB71E
:1013A000DEB7C058D1090FB6F894DEBF0FBECDBF6F
:1013B00020EA30E040E851E070E060E090E080E05A
:1013C0000E946E0800EA10E080E8D82ECE01019657
:1013D0007C01F7018D2D11928A95E9F760E870E0A4
:1013E000C7010E9449080150110999F7C058DF4F01
:1013F0000FB6F894DEBF0FBECDBFDF91CF911F9126
:101400000F91FF90EF90DF90089540E051E060E28F
:1014100070E08DE194E00E94453348E050E061E0E7
:1014200070E085E194E00E9445331092200510920F
:101430001F0510921E0510921D0508951092982503
:1014400010929725109208041092070480E090E211
:1014500090930604809305049093040480930304FE
:10146000909302048093010490939A258093992588
:10147000E7E3F5E0DF019C011D9221503040E1F7E8
:10148000109200041092FF031092FE031092FD03CD
:101490001092492510924825089580EEEDE3F4E07E
:1014A000ADE1B4E001900D928A95E1F740E250E0A1
:1014B00060E270E08DEF94E00E94453348E050E038
:1014C00061E070E085E194E00E94453380911D0564
:1014D00090911E05019790931E0580931D05089518
:1014E000CF93DF931092200510921F0580911D0568
:1014F00090911E05019690931E0580931D050897F7
:1015000011F40E944D0AC0911D05D0911E05CE0117
:1015100025E0880F991F2A95E1F740E250E060E24C
:1015200070E0835E9B4F0E944533CB5EDB4F81E0D2
:101530008883DF91CF910895CF93DF93C0911D05EC
:10154000D0911E0525E0CC0FDD1F2A95E1F72091F3
:101550001F0530912005C20FD31F9E01D7FF02C087
:10156000215E3F4F95E0359527959A95E1F7F90172
:10157000EB5EFB4F91E090839E012F5F3F4FFE019A
:10158000E35EFB4F80832F3F310531F02CF00E944A
:101590004D0A9E012F513109C90160E270E00E949D
:1015A000DD329093200580931F0537FF02C0215E36
:1015B0003F4F85E0359527958A95E1F730931E05D5
:1015C00020931D05DF91CF9108952F923F924F9266
:1015D0005F926F927F928F929F92AF92BF92CF92C3
:1015E000DF92EF92FF920F931F93CF93DF938B01C4
:1015F000382E292E6B01E82EF92ED0E0C0E0812C88
:10160000912C540183942AE0422E512C612C712C90
:101610002196AAE0B0E0A50194010E943A2F4B0167
:101620005C01C701B601A30192010E941B2F690151
:101630007A01C114D104E104F10451F7F12CE12C39
:101640008AE0482E512C612C712CC501B401A301F4
:1016500092010E941B2F49015A01B801832D922D3E
:101660000E941B2FCA01B901A30192010E941B2FE6
:1016700080E3860F0E949C0A8FEFE81AF80ACE15C5
:10168000DF0519F7CE01DF91CF911F910F91FF90E8
:10169000EF90DF90CF90BF90AF909F908F907F9012
:1016A0006F905F904F903F902F900895CF93DF936E
:1016B000EC01FE0184912196882319F00E949C0A76
:1016C000F8CFDF91CF910895CF93DF93EC010E9483
:1016D000700ABE0190E080E00E94E50A80E20E946C
:1016E0009C0A89E798E0DF91CF910C94560BFF920A
:1016F0000F931F93CF93DF93C0911D05D0911E05CB
:1017000025E0CC0FDD1F2A95E1F720911F053091D0
:101710002005C20FD31F8C01FF24F394F80181919F
:101720008F019E01D7FF02C0215E3F4F95E03595A6
:1017300027959A95E1F78823B9F02B5E3B4FF90185
:10174000F082CE010196F80131972081FE01E35E1F
:10175000FB4F20838F3F910529F024F00E944D0A12
:10176000CE014F97EC01DACFCE0160E270E00E942B
:10177000DD329093200580931F0530931E05209342
:101780001D05DF91CF911F910F91FF900895CF9389
:10179000DF93FC0120813181C0919925D0919A2558
:1017A000CE01895C9A4FC20FD31F8E179F0739F461
:1017B000D0939A25C0939925DF91CF910895AF01D9
:1017C000481B590BBC01820F931F0E943333F0CF8B
:1017D000CF92DF92EF92FF920F931F93CF93DF93FD
:1017E0000091070410910804F801EB5CFA4F208186
:1017F00031817C014FEFE41AF40AE216F306F4F4A7
:10180000EC01C9010296081B190B10930804009300
:101810000704C801895C9A4F6C01CE0CDF1C672B52
:10182000B1F4F60131971082F601F182E08223963D
:101830000C0F1D1F1093080400930704DF91CF9134
:101840001F910F91FF90EF90DF90CF900895B90115
:101850006E197F09680F791FA7010E943333E4CF07
:101860008F929F92AF92BF92CF92DF92EF92FF92B0
:101870000F931F93CF93DF934B015C01EA0120E0AC
:1018800030E0A9010E94302C811111C080E38883CF
:101890001982CE01DF91CF911F910F91FF90EF90B0
:1018A000DF90CF90BF90AF909F908F90089575017B
:1018B0006401E894F7F827E137EB41ED58E3C701FD
:1018C000B6010E94302C87FD0AC020E034E244E7D4
:1018D00059E4C701B6010E949D31181644F400E096
:1018E00026E0AE01C501B4010E94A127D2CFC701F5
:1018F000B6010E94E4310E94DF3020E030E040E891
:101900005FE30E945D2F0E94A93027E030E079015B
:10191000E61AF70A8E012E2D41E0C501B4010E949E
:101920002328FE01EF2809F4B4CF9F012F5F3F4F1A
:101930008081811108C0DF011197FD018C918033F6
:1019400021F41C92F8CFF901F0CF8E3209F0A1CF2B
:1019500010829FCF0F931F93CF93DF93C0914625A3
:10196000D0914725D093FB03C093FA03FE01319633
:10197000F0934725E0934625088110E01093452514
:10198000009344250130110531F5AAE0B4E030E0C0
:1019900020E08191A9014F5F5F4F87FD03C08D93C8
:1019A0009A01F7CFF0934725E09346258058265FAC
:1019B0003B4FF901808391E0843209F090E09093ED
:1019C0000904465F5B4FFA011082C801DF91CF9195
:1019D0001F910F9108950330110591F489819A8127
:1019E000AB81BC818093402590934125A0934225F3
:1019F000B09343252596D0934725C0934625E5CF40
:101A00000230110579F469817A818B819C810E9471
:101A1000372C609340257093412580934225909305
:101A20004325E8CF0430110581F6F093F903E093E4
:101A3000F80301900020E9F7F0934725E09346254D
:101A4000C4CF0E94AA0C80917A00806480937A00AF
:101A500080917A0086FDFCCF2091780080917900FA
:101A600090913F25911103C090E080E0089590E0AF
:101A7000982F8827820F911D26E0289FB001299F6B
:101A8000700D112490E080E00E94352C0E947D06AC
:101A9000892B51F78AE090E008952F923F924F9260
:101AA0005F926F927F928F929F92AF92BF92CF92EE
:101AB000DF92EF92FF920F931F93CF93DF93CDB7F7
:101AC000DEB7C656D1090FB6F894DEBF0FBECDBF44
:101AD00095E1492E94E0592E912C812CD12CC12CCA
:101AE0007E012DE5E20EF11CCE018F5B9F4FA29689
:101AF0009FAF8EAFA297F20181912F0181110DC08E
:101B000080912105882309F406C180911D059091DB
:101B10001E058C159D0509F0FEC0960184E0220F7C
:101B2000331F8A95E1F7A6963FAF2EAFA697C40163
:101B3000835E9B4FA4969FAF8EAFA497B12CA12C30
:101B4000A4962EAD3FADA497281939092D513440E4
:101B5000A496EEADFFADA4978191A496FFAFEEAF32
:101B6000A49780320CF480E240911F05509120052B
:101B70004217530779F420911D0530911E052C154D
:101B80003D0541F490912105992321F09091130492
:101B900091118FE5282F082E000C330B3F938F9364
:101BA00028EC32E03F932F931F9282E08F93FF92B5
:101BB000EF920E9488333501F70101900020E9F788
:101BC00031978F010E191F092CE0209FC001219F22
:101BD000900D11248A0D9B1D0FB6F894DEBF0FBE29
:101BE000CDBF813891404CF080E891E08A199B0983
:101BF0006CE070E00E94DD328B011701C1018E198B
:101C00009F09801791070CF07AC0F10181911F01A3
:101C10008052990BF6E0F89FB001F99F700D1124E6
:101C2000675C794F46E050E0CE018B5A9F4F0E948F
:101C3000082C6696AFAD669767962FAD6797A79607
:101C40002FAFA79768964FAD689769965FAD699774
:101C50006A966FAD6A976B967FAD6B97FE01319672
:101C600081E0982F9A2320E009F02CEFA7969FADF2
:101C7000A797982309F43FC0236090EEB82FB423B0
:101C800009F09F612483208395839183982F952366
:101C900020E009F02CEF982F962379F1236090EE45
:101CA000B82FB72309F09F612683228397839383FC
:101CB0003896880FA2962EAD3FADA297E217F30794
:101CC00081F630E8631631E073065CF420E130E021
:101CD0004CE050E0A6966EAD7FADA697C3010E9482
:101CE0006E0860E470E0CE0101960E9449088CE025
:101CF000680E711C83CF90E0C1CF90E0D1CF9CE003
:101D0000A90EB11CE0E8AE16E1E0BE0609F018CF5E
:101D1000F20131971082FFEFCF1ADF0A20E2820E24
:101D2000911C38E0C316D10409F0E5CECA59DF4F43
:101D30000FB6F894DEBF0FBECDBFDF91CF911F91DC
:101D40000F91FF90EF90DF90CF90BF90AF909F905A
:101D50008F907F906F905F904F903F902F9008955D
:101D6000CF92DF92EF92FF920F931F93CF93DF9367
:101D700081E08093210580911F0590912005892B9A
:101D800009F064C080911D0590911E0575E0880FD3
:101D9000991F7A95E1F740E250E060E270E0835EDF
:101DA0009B4F0E944533C0911D05D0911E0555E003
:101DB000CC0FDD1F5A95E1F780911F05909120050A
:101DC000C80FD91F8E01D12CCC24C39460E2E62E1B
:101DD000F12C0E94FC08882309F465C09E01D7FFFE
:101DE00002C0215E3F4F45E0359527954A95E1F7C2
:101DF000F901EB5EFB4FC08290EE980F9F3548F5DE
:101E0000FE01E35EFB4F80832196CE01B7010E9465
:101E1000DD329093200580931F05CE01D7FD4F96AC
:101E200035E0959587953A95E1F790931E05809357
:101E30001D05089741F400321105DCF0005211092C
:101E4000A0970E944D0AC0921404C3CF0E94700A4A
:101E5000AACF823049F40C171D07BCF62197FE016A
:101E6000E35EFB4F1082D1CF8D3079F6DD24D39421
:101E7000CCCF2197FE01E35EFB4F1082CE01B7016C
:101E80000E94DD329093200580931F05CE01D7FD7F
:101E90004F9625E0959587952A95E1F790931E0535
:101EA00080931D05D0CF8091140481110E944D0DA7
:101EB000DD2009F48ECFC35EDB4F1882109221051E
:101EC000E0911D05F0911E05EB5EFB4F81E08083E4
:101ED0000E944D0DC801835E9B4FDF91CF911F91F2
:101EE0000F91FF90EF90DF90CF900895EF92FF92C7
:101EF0000F931F93CF93DF9300D000D0CDB7DEB701
:101F00008EEDE82E84E0F82EC7010196F7010491CA
:101F1000033659F4F2E0EF0EF11CFC01649170E01D
:101F200090E080E00E948905EFCF0023C1F0F2E04D
:101F3000EF0EF11CFC0184910E942B08015021F34B
:101F400010E0A801B701CE0101960E94082CE00E16
:101F5000F11EB801CE0101960E944908D5CF0F901D
:101F60000F900F900F90DF91CF911F910F91FF90E5
:101F7000EF900895CF92DF92EF92FF920F931F930D
:101F8000CF93DF93EC0109900020E9F72197C81B5C
:101F9000D90B6E012FEFC21AD20AE0900704F0901D
:101FA000080497012C0D3D1D2F5F3F4F409199254F
:101FB00050919A2524173507F4F4BC018701095C78
:101FC0001A4FC8010E947333F801EC0DFD1DD18238
:101FD000C0822396CE0DDF1DD0930804C093070462
:101FE00081E090E0DF91CF911F910F91FF90EF90F2
:101FF000DF90CF90089590E080E0F4CFCF92DF9211
:10200000EF92FF920F931F93CF93DF937C016B01AD
:10201000C0919925D0919A25C95CDA4F00910104AD
:1020200010910204095C1A4FC017D10790F48A81FD
:1020300090E08C219D21892B39F0B701CE010396C8
:102040000E944C33892B39F088819981C80FD91FA0
:10205000EBCFD0E0C0E0CE01DF91CF911F910F9187
:10206000FF90EF90DF90CF9008958F929F92AF9264
:10207000BF92EF92FF920F931F93CF93DF937C0158
:102080004A015B01EC0109900020E9F72197C81B88
:10209000D90B63E070E00E94FE0F009799F0C80F23
:1020A000D91F8C829D82AE82BF8281E090E0DF9159
:1020B000CF911F910F91FF90EF90BF90AF909F90A5
:1020C0008F900895CE010896E0919925F0919A2578
:1020D000E81BF90B2091070430910804E217F3077D
:1020E000C4F0F0939A25E0939925E95CFA4F918327
:1020F00080838F010D5F1F4F81E08283B701C8018C
:102100000E947333C00FD11F89829A82AB82BC8236
:10211000CCCF90E080E0CBCF8F929F92AF92BF92D6
:10212000CF92DF92EF92FF920F931F93CF93DF93A3
:10213000CDB7DEB72B970FB6F894DEBF0FBECDBF7D
:10214000C0903405D0903505D601BD908D01EB2CA3
:10215000F12CC7010E94FF2B892B89F5D092350500
:10216000C0923405B1102DC0E0913205F0913305D5
:10217000CF010196909333058093320510828091B0
:10218000300590913105019790933105809330058A
:10219000EE24EA94FE2CC7012B960FB6F894DEBF0E
:1021A0000FBECDBFDF91CF911F910F91FF90EF90A8
:1021B000DF90CF90BF90AF909F908F90089568016F
:1021C000C3CFC701C0970A9718F0BEE2BB1291C0F7
:1021D000FE01319690E080E0F12CE12C8F014C2D36
:1021E0003D2DD6012D916D012E32B1F4E114F10493
:1021F00081F04093340530933505CDCF8A30910579
:1022000071F7D0923505C0923405EE24E394F12C99
:10221000C2CFEE24E394F12C01962193D6012C91A8
:10222000622F6053770B6A30710540F32E3231F321
:10223000D0923505C0923405800F911FDC011C92AD
:102240008091300590913105863091050CF454C190
:1022500005979093310580933005E114F10431F531
:102260004AE050E070E060E0C8010E94F9294B01AB
:102270005C01B1E08B1A9108A108B0E8BB0AEEEF4F
:102280008E16EFEF9E06AE06BE0680F4E091320594
:10229000F091330522E020836183728383839483EA
:1022A0003596F0933305E093320575CFE090320513
:1022B000F0903305C7010196909333058093320562
:1022C00083E0D7018C9370E060E0C8010E949B28F6
:1022D000F7016183728383839483809132059091A7
:1022E000330504969093330580933205F12CE12C4D
:1022F00052CFC7010E9422337C01892B09F4E1C02F
:102300001093350500933405B982CC24C394D12CA5
:10231000D801BD907D018B2D90E00E941533892B53
:1023200019F4B4E2BB1211C0E8E0CE16D1045CF49B
:10233000E1E0F0E0EC0FFD1FEC0DFD1DB082A60109
:102340004F5F5F4F6A018701E3CF1093350500931C
:102350003405E1E0F0E0EC0FFD1FEC0DFD1D1082F7
:1023600050E7852E55E0952E67E1A62EB12CF4019D
:1023700065917491CE0101960E944C337C01892BAA
:1023800009F050C08091300590913105823091055F
:102390000CF4B2C001979093310580933005E09121
:1023A0003205F0913305CF01019690933305809368
:1023B0003205A0825FE1A516B10409F0ECCE6F01F1
:1023C00062E0C60ED11CD0923305C092320584E083
:1023D000818358017FEFA71AB70AD8018C9190E04A
:1023E0000E94FF2B7C01892B89F410933505009303
:1023F0003405F601402F312FD8012D918D01BFEF0B
:10240000CB1ADB0A222321F02083F3CF8501E1CF11
:102410004093340530933505D0923305C092320590
:102420001082B9CEEFEFAE1ABE0AF3E08F0E911C08
:102430002EE4A216B10409F09ACF64E270E0CE0156
:1024400001960E945F33009769F09601215031098F
:1024500041E050E04C0F5D1F240F351F821793079A
:1024600009F0C5C096012F5F3F4F809130059091D4
:102470003105281739070CF03FC0821B930B90934E
:1024800031058093300500913205109133057801B4
:102490005FEFE51AF50A81E0D8018C93BE016F5F0A
:1024A0007F4FC7010E947333F801EC0DFD1D808141
:1024B00080688083CE0CDF1CD0923305C092320539
:1024C00015CFB2E2BB124CC0E0913205F09133055A
:1024D000DF011196B0933305A093320584E0808329
:1024E000809130059091310501979093310580934B
:1024F00030058230910524F442E0E42EF12C4BCEDD
:10250000F80110933505009334056D018601608153
:10251000662309F470C0A6014F5F5F4F9C012150F4
:102520003109623239F4CF0101966181623209F0DA
:1025300072C0FC016A018081D8018C93C901319677
:102540002130310519F7F0933505E09334055093A8
:102550003305409332053093310520933005CCCFBD
:102560002DE6A22E25E0B22E36E1832E912CF50128
:10257000A591B491FD0101900020E9F731978F01F9
:102580000A1B1B0BF50185919491A801B6010E94CD
:102590007A337C01892B01F58091300590913105CA
:1025A000823091050CF4A8CFE0913205F09133050B
:1025B0009F012F5F3F4F3093330520933205808278
:1025C00001979093310580933005C00ED11ED092B3
:1025D0003505C0923405DFCDB1E08B1A9108E3E0F8
:1025E000AE1AB108F7E08F16910409F0C0CF83E06E
:1025F000E82EF12CD0CDF0933505E0933405D09240
:102600003305C0923205909331058093300594E0F4
:10261000E92EF12CC0CD909335058093340550936D
:10262000330540933205D6011C9230933105209337
:102630003005B1CD6F927F928F929F92AF92BF92F1
:10264000CF92DF92EF92FF920F931F93CF93DF937E
:10265000CDB7DEB764970FB6F894DEBF0FBECDBF1F
:10266000E0904425F09045256AE2E616F1040CF06E
:102670004CC078E2E716F1040CF07EC088E0E81662
:10268000F10409F4DBC1ECF4E4E0EE16F10464F4C7
:10269000F2E0EF16F1040CF0B3C1EA94EF2809F46C
:1026A000B8C006E010E0E8C074E0E716F104C9F72E
:1026B00080913F258111B8C10E94AA0C00E010E171
:1026C000DBC087E2E816F1040CF0CBC195E2E91615
:1026D000F1040CF051C0EBE0EE16F10421F0F9E149
:1026E000EF16F104F1F60E94AA0C0E941A138C0155
:1026F0001F700115110509F0CBC18827907F892B28
:1027000009F4C8C107E010E0B7C060E4E616F104C0
:1027100034F57EE3E716F1047CF583E3E816F10473
:102720000CF4BFCF96E3E916F10434F1EBE3EE16B7
:10273000F10409F0B6CF0E94AA0C80913F258823AE
:1027400009F45BC160913605611110923605062EC1
:10275000000C770B880B990B0E94372CFCC0FCE413
:10276000EF16F10409F492C10CF04DC0C701825478
:102770009109079708F095CFF701EE0FFF1FEE0DB7
:10278000FF1DE35DFA4F14910E94AA0C809144252D
:1027900090914525089709F061C1612E712C0E9426
:1027A000AA0C1370C12ED12C530133E0B594A79419
:1027B0003A95E1F777E0A722BB24912C812C8C1469
:1027C0009D040CF099C10E947B198C019F70892B8C
:1027D00009F052C00027107FA0FC87C1012B09F02F
:1027E00091CFB594A7949FEF891A990A8C149D04F0
:1027F00034F78091442590914525469709F051CFB3
:102800000E94AA0CDCCF7DE4E716F10409F4B4CFF2
:1028100048CF10913F25112331F06AE074E0CE01DA
:1028200001960E947333E09009040E2C000CFF08FF
:102830000E94AA0C8091442590914525089709F0A3
:1028400090C00E9497198C01892BB1F480913F258B
:10285000882309F4CFC08E010F5F1F4FEF2809F4C2
:102860004AC060E170E0C8010E94FE0F9C8B8B8B18
:102870000097C1F40CE010E0C80164960FB6F8941C
:10288000DEBF0FBECDBFDF91CF911F910F91FF90A3
:10289000EF90DF90CF90BF90AF909F908F907F9000
:1028A0006F900895F80101900020E9F79F01201B27
:1028B000310B2D5F3F4F820F931F9C8B8B8BBE0183
:1028C0006F5E7F4FCE0143960E9419068C01892BC3
:1028D00099F629893A898B899C89021713070CF08C
:1028E0005EC0FC014081411102C00F5F1F4F019685
:1028F0009C8B8B8BF0CF64E070E0C8010E94FE0FD0
:102900009C8B8B8B009709F4B5CFF80101900020C8
:10291000E9F79F01201B310B2D5F3F4F820F931F63
:102920009C8B8B8BBE016F5E7F4FCE0143960E94C6
:1029300019068C01892B09F09FCF89899A89880F04
:10294000991F880F991FEB89FC89E80FF91F608197
:102950007181828193810E947D06892B09F04DC08F
:1029600023C0112309F446C08E010F5F1F4FEF28CB
:10297000F1F068E070E0C8010E94FE0F009709F4D2
:1029800079CFF80101900020E9F79F01201B310B5E
:102990002D5F3F4F820F931F009709F46BCF0E946A
:1029A000BA0F892B09F08ACE0AE010E065CF63E008
:1029B00070E0C8010E94FE0F009709F45BCFF80198
:1029C00001900020E9F73197E01BF10BE80FF91FA8
:1029D000C480D580E680F7802FEF3FEF4FE75FE7B9
:1029E000C701B6010E94302C882309F443CFC701E8
:1029F000B601B1CFEF2809F061CE10E000E03CCF86
:102A000080913F25811103C00E94AA0CF6CF6091EE
:102A100040257091412580914225909143250E9447
:102A20007D06892B89F7C0CF8091F8039091F90337
:102A30000E94BA0F892B09F03FCEB6CF0E94AA0C94
:102A40000E947B198C019F70892B09F015CF809112
:102A5000442590914525099709F49AC005E010E0B6
:102A60000BCF0E94AA0C80913F25882331F20E944F
:102A70008C28BC01990F880B990B0E94372C20E001
:102A80003EEF4FEF56E40E94FD2F65CF0E94210DCF
:102A90008C01F2CEFBE0EF16F104B9F069E1E61625
:102AA000F10409F0FECD80913F25882309F4A5CFDC
:102AB0000E94080620E030E0A9010E94302C882303
:102AC00079F060E070E0CB0108C080913F25882359
:102AD00009F493CF0E94080690580E947D06CCCE40
:102AE00060E070E080E89FE3F8CF0115104109F441
:102AF00078CE08E010E0C0CE80913F25882309F40D
:102B000039C0F701B597E932F10508F0CACDE557AC
:102B1000FA4E0C94F132D71527165113B415CB1574
:102B20005113511351135113511351135113511385
:102B3000511393169F16AB16511351135113511382
:102B40005113511351135113F916231751135113E4
:102B5000EA15EF15F91509160E1613161816511366
:102B6000511351135113F4150E9408060E94DF30CF
:102B70000E947D068091442590914525099709F092
:102B80006DCF8301102F0027110F110F0027107137
:102B90000E94AA0C71CE0E940806AE014F5F5F4FE3
:102BA0000E94300C0E94BA0F892B21F7FDCE0E94A3
:102BB000F405FC0101900020E9F73197BF01681B83
:102BC000790B072E000C880B990B0E94372C0E9462
:102BD0007D06EACF0E9408060E947032F8CF0E945C
:102BE00008060E94F82FF3CF0E9408060E94C92F02
:102BF000EECF0E94080620E030E0A9010E949D313E
:102C000018161CF40E940806E2CF0E94080690588D
:102C1000DECF0E9408060E94F431D9CF0E94080638
:102C20000E947730D4CF0E9408060E947E32CFCF18
:102C30000E9408060E94A9306115710511F277FF04
:102C400003C06FEF7FEFBDCF61E070E0BACF0091BE
:102C5000070410910804E090FA03F090FB038091C0
:102C6000992590919A25801B910B9801295C3A4FE8
:102C7000F901329740815181F901E41BF50BAF0155
:102C80004250510950933505409334053093330534
:102C90002093320590933105809330050E948C106B
:102CA0000097E1F334F0029709F47ECE07E110E0DB
:102CB000E3CD8091070490910804895C9A4F90932A
:102CC000472580934625809132059091330587539F
:102CD000954090930804809307040E94AA0C0E94D8
:102CE0007B199C013F70232B21F00A9709F45CCEDD
:102CF000DDCF8827907F892B09F004CD0E9408063C
:102D00004B015C0110930804009307040E94F40532
:102D1000C501B4010E947D06F0924725E092462548
:102D20000E94AA0C27CF0E9408060E94A930CB015E
:102D300070E060E097FF0CC006E110E09DCD0E94BE
:102D400008060E94A930CB0177FDF6CF61E070E064
:102D50000E94E80B0FCF0E9408060E94A9306B0169
:102D60008B010E9408060E94A930D7FCE5CF1616F9
:102D7000170614F72091070430910804F901EB5C61
:102D8000FA4F408151810F5F1F4F461757070CF4D0
:102D9000BA0161507109C801860F971F481759077A
:102DA0001CF48A01061B170B4017510709F4E2CEE9
:102DB0004E5F5F4F7901E41AF50AC701895C9A4FAB
:102DC0006C01A80141505109680F791F0E943333EB
:102DD000F601E00FF11FDF0111971C9211830083B0
:102DE0000E5F1F4F0E0D1F1D109308040093070464
:102DF000C1CE0E9408060E94A9307727FB01EB5E36
:102E0000F94F8491FB01E452F74F04916854774FD6
:102E1000FB01149170E060E0112309F4D2CE81111E
:102E20000E94C304E12FF0E0EE0FFF1FEF5EFA4FA8
:102E3000A591B491EC910E2391E080E009F490E02B
:102E4000692F782FBECE0E9408060E94A930862FD7
:102E50006E3010F082EF860F20917B00982F9870D3
:102E6000277F922B90937B008770806480937C00F7
:102E700080917A00806480937A0080917A0086FD48
:102E8000FCCF8091780060917900762F682F99CEE1
:102E90002F923F924F925F926F927F928F929F926A
:102EA000AF92BF92CF92DF92EF92FF920F931F9358
:102EB000CF93DF9300D000D0CDB7DEB79A8389835C
:102EC0008B010E94BC056C0189819A81C816D906C4
:102ED0000CF4BDC180914425909145259C838B8342
:102EE0000E94AA0C0E941A137C019F70892BE1F4A6
:102EF0000E94BC05C816D9064CF4B701C60101965C
:102F00000E9448177C019F70892B71F4C8018827A3
:102F1000907F009709F0FDC0EE2490EFF922EF2892
:102F2000D9F096E0E92EF12CC7010F900F900F9089
:102F30000F90DF91CF911F910F91FF90EF90DF9055
:102F4000CF90BF90AF909F908F907F906F905F9049
:102F50004F903F902F900895F0903F25FF2009F467
:102F60007CC10E9408064B015C010E940806762E77
:102F7000672E582E492E8B819C810A9709F0A0C19B
:102F8000272D362D452D542DC501B4010E945D2FEE
:102F90000E947D0696CF8B819C810D9709F06DC1B3
:102FA00020E030E0A901C501B4010E94302C882343
:102FB00009F44FC1A5019401672D762D852D942D1F
:102FC0000E94FD2FE5CF8B819C81409789F4FF20E3
:102FD00009F477CF272D362D452D542DC501B40189
:102FE0000E949D311816ACF060E070E0CB01D0CFAC
:102FF0008B819C810F9791F4FF2009F462CF272DDC
:10300000362D452D542DC501B4010E94302C87FF6B
:10301000EBCF60E070E080E89FE3BACF8B819C81CA
:103020000E9771F4FF2009F44CCF272D362D452D36
:10303000542DC501B4010E94302C882351F3D4CF04
:103040008B819C81419771F4FF2009F43ACF272DA1
:10305000362D452D542DC501B4010E94302C81110F
:10306000D8CFC2CF8B819C81439771F4FF2009F4A4
:1030700028CF272D362D452D542DC501B4010E9492
:103080009D3187FFC6CFB0CF8B819C81429779F469
:10309000FF2009F416CF272D362D452D542DC501BF
:1030A000B4010E94302C18160CF0B3CF9DCF8B8149
:1030B0009C814797A9F4FF2009F403CF20E030E07A
:1030C000A901C501B4010E94302C81111FC050E03C
:1030D00040E030E020E0652F742F832F922F58CFEF
:1030E0008B819C81489709F01CCFFF2009F4E9CE21
:1030F00020E030E0A901C501B4010E94302C8823F2
:1031000029F050E040E030E82FE3E5CFA301920141
:10311000E2CF8115904109F004CFEE2480EFF82230
:10312000E11490E1F90609F0FCCE8B819C810A97AD
:1031300009F041C080913F25882309F4C2CE209137
:10314000070430910804F901EB5CFA4F808191810A
:103150009C838B830296281B390BB901695C7A4FDB
:10316000FB013297E080F180C70102961901281A0D
:10317000390AC101895C9A4F6C01C70101974B81E3
:103180005C818C0D9D1D0E9433338B819C818E0D43
:103190009F1D9C838B830197F601E80FF91F918394
:1031A00080838B819C810196820D931D90930804EE
:1031B0008093070486CE8B819C810E97069708F03A
:1031C000B0CE80913F25882309F10E94F4058C013F
:1031D0000E94F405B8010E946A338C018B819C81A6
:1031E0000E9741F40115110509F413CF60E070E06A
:1031F000CB010AC08B819C81419759F4012BB1F31B
:1032000060E070E080E89FE30E947D0610E000E04F
:1032100058CE8B819C810F9721F41016110634F73C
:10322000EFCF8B819C81409719F417FFDFCFE8CF58
:103230008B819C81429719F417FDD8CFE1CF8B8108
:103240009C81439799F61016110684F2D9CF780124
:103250006BCE8BE0E82EF12C67CE8B819C810A9798
:10326000029708F42ECE8B819C810C9709F429CE0D
:103270008B819C810D9709F424CE8B819C818E9744
:1032800009F0A1CEFF2009F41CCEC501B4010E94B3
:10329000A9307C836B83CB01892BD9F2672D762DE6
:1032A000852D942D0E94A930CB016B817C810E94D9
:1032B000DD32BC01990F880B990B0E94372C68CE28
:1032C0008B819C810B9749F4A5019401672D762D84
:1032D000852D942D0E945C2F5BCE8B819C810C9759
:1032E00009F059CE272D362D452D542DC501B40199
:1032F0000E94962C4DCE0E941A139C013F70232BE6
:1033000029F4BC0190E080E00C94481708950E94D5
:103310007B199C013F70232B49F48827907F892BD0
:1033200019F490E080E0089587E090E008950F930D
:103330001F93CF93DF938091442590914525089763
:1033400041F005E010E0C801DF91CF911F910F918E
:1033500008950E94AA0CD0E0C0E021960E9487192F
:103360008C01892B81F780914425909145258930E6
:10337000910529F0469729F70E94AA0CEECF0E94EA
:10338000AA0C80913F258823F1F2BE01DD0F880B46
:10339000990B0E94372C0E947D06892BA1F60AE02A
:1033A00010E0D1CF4F925F926F927F928F929F9257
:1033B000AF92BF92CF92DF92EF92FF920F931F9343
:1033C000CF93DF93CDB7DEB72D970FB6F894DEBF5E
:1033D0000FBECDBFB82E80913F25882331F06AE023
:1033E00074E0CE0101960E947333C09009040C2C46
:1033F000000CDD080E94AA0C80914425909145257F
:10340000F12CE12C089701F50E9497198C01EE240C
:10341000E394F12C892BC1F0C8012D960FB6F894D6
:10342000DEBF0FBECDBFDF91CF911F910F91FF90F7
:10343000EF90DF90CF90BF90AF909F908F907F9054
:103440006F905F904F900895BB2009F47BC08091EE
:103450003F25882379F00E94B00EC114D10409F4ED
:103460006AC00E94BA0F892B09F462C00E94700AD8
:103470000E944D0D10E000E0CD2809F478C000E076
:1034800010E10027107F0115104109F053C1809110
:103490003F25882309F4BBC08E010F5F1F4FA0900A
:1034A0000704B0900804EF2809F4E3C00E94F40573
:1034B0004C01FC0101900020E9F731973F01681AA7
:1034C000790A60E170E0C8010E94FE0F6C019D87DF
:1034D0008C87892B09F467C0F80101900020E9F777
:1034E000CF01801B910B03968C0D9D1D9D878C87B2
:1034F000BE01665F7F4FCE010C960E9419068C01BB
:10350000892B09F089CF2A853B8590E080E0EC8407
:10351000FD84F701821793070CF07CC040814111B4
:1035200001C00196FFEFEF1AFF0AFD86EC86EFCF90
:103530000AE010E071CF70E060E00E949B280E94DA
:103540007D0691CF809144259091452506E010E0BD
:103550000E9709F061CF0E94AA0C0E947B198C0182
:103560009F70892B09F058CFCD2809F08ACF00270A
:10357000107F012B09F0DBC080913F25882309F4DF
:1035800046C08E010F5F1F4FEF28B9F10E94080659
:103590006B017C0164E070E0C8010E94FE0F9D8712
:1035A0008C87009719F40CE010E036CFF8010190F9
:1035B0000020E9F79F01201B310B2D5F3F4F820F49
:1035C000931F9D878C87BE01665F7F4FCE010C964F
:1035D0000E9419068C01892B09F01ECF8A859B85D4
:1035E000880F991F880F991FEC85FD85E80FF91F3B
:1035F000C082D182E282F3820FCF0E940806AB0123
:10360000BC01C8010E943510892B09F491CF10E04C
:1036100000E002CF01900020E9F73197EE19FF0991
:103620006E1A7F0A6091992570919A252B01461890
:1036300057084A145B040CF4EFCEF60180819181A7
:10364000860D971D91838083695C7A4FA701461B85
:10365000570BC201895C9A4F0E943333B401C701F2
:10366000861997090E94733350929A2540929925A2
:10367000D3CEC501895C9A4FFC01329720813181FC
:10368000821B930B9C01225031096901F8010190C2
:103690000020E9F731977F01E01AF10AF901019062
:1036A0000020E9F74F01C7010496821A930A880E99
:1036B000991E68E070E0C8010E94FE0F009789F033
:1036C000FC01208131814091992550919A25240F48
:1036D000351F281939092A153B0508F429CF0E94FE
:1036E000C70BE0919925F0919A25E819F909EA1597
:1036F000FB050CF41DCFF0939A25E0939925E95C26
:10370000FA4F918280825F0123E0A20EB11C88E013
:103710008283B801C5010E947333C7010196B601C7
:103720008A0D9B1D0E9473330E94F40570CF07E041
:1037300010E072CE08E010E06FCE2F923F924F92D1
:103740005F926F927F928F929F92AF92BF92CF9231
:10375000DF92EF92FF920F931F93CF93DF93CDB73A
:10376000DEB7C052D1400FB6F894DEBF0FBECDBF5A
:103770001092FC0310923A251092392510923825A8
:10378000109237259E012F5F3E4FCF5FDE4F39836A
:103790002883C150D140CE0101961C01E090442500
:1037A000F0904525E114F10411F40C944E24D090CE
:1037B0003F25DD2041F080919725909198259093A9
:1037C000080480930704F7013197EB34F10510F0FA
:1037D0000C945124E251F44E0C94F132831C512488
:1037E0005124512451245124512451245124512431
:1037F0005124512451245124512451245124512421
:103800005124512451245124512451245124391C30
:10381000781C971CB71DFA1D131E81238D1C812354
:10382000181E512451245124512451245124831E03
:1038300051245124751F512481234A2081239F2024
:103840005124512451248123B32106230623062326
:103850005124CC21CC21512451248123CC21512429
:10386000512451245124512451245124812355227F
:10387000B7220E94AA0CEE24E394F12C80914425F7
:1038800090914525009749F1449739F10E947B19A1
:103890008C019F70892B09F01BC280913F258823E2
:1038A00071F00027107F012BA9F40E940806A101E6
:1038B0000E94300C0E94770BEE24E394F12C80914F
:1038C0004425909145254597C9F60E94AA0CF12CF4
:1038D000E12CD4CF0E94F405EDCF80913F258823C1
:1038E000C9F0EF2811F00E94700A0E944D0D12C01D
:1038F0000E94AA0C8091442590914525019719F0CA
:1039000006E010E0E5C180E00E94D2198C01892B0D
:1039100009F0DEC101E010E0ACC10E94AA0C809168
:10392000442590914525019759F781E0EDCF0E94FC
:10393000AA0C8091442590914525009709F467C011
:10394000449709F464C00E9487198C01892B09F0FF
:10395000BFC180913F25912C812C882329F00E94A2
:1039600008060E94B0304B01809144259091452576
:10397000469709F44FC0512C412C80913F25882354
:1039800049F2712C612CD12CA7E3AA2EA5E0BA2E06
:103990008091972590919825895C9A4FA816B90631
:1039A00008F0A3CFD50112966D917C9181149104FA
:1039B00021F06815790508F4D4C04114510421F0B0
:1039C0004616570608F4CDC090E080E00E94E50A54
:1039D00080E20E949C0A7501B4E0EB0EF11CCD5F01
:1039E000DE4F19821882C350D140D701EC91EE23EB
:1039F00009F49EC0E13031F587010F5F1F4FF801D8
:103A000081918F0187FD19C00E949C0AF8CF912CEB
:103A1000812CB1CF0E94AA0C0E9487198C01892B9E
:103A200009F056C180913F25882309F473CF0E9485
:103A300008060E94B0302B01A0CF80580E949C0A3B
:103A40007801D3CFE33079F411966D917D918D910A
:103A50009C911497A1010E94300C0E94770B870162
:103A60000B5F1F4FEDCFE23041F4F70161817281AE
:103A7000838194810E94E50AF2CF87010F5F1F4F77
:103A8000E43059F5CD5FDE4F28813981C350D140F4
:103A9000232B49F0C8010E94770BD8010D9000201C
:103AA000E9F78D01CDCF82E20E949C0A780187015F
:103AB000F70181917F01882351F0823211F40E9435
:103AC0009C0AF701319780810E949C0AF0CF82E224
:103AD0000E949C0A0F5F1F4FB3CF23E0E29FF001CB
:103AE0001124E35DFA4FC490C7FE03C080E20E9438
:103AF0009C0AD701EC91B3E0EB9FF0011124E55D46
:103B0000FA4F859194910E94770BC6FE03C080E224
:103B10000E949C0AF70180818F3109F091CF21E04A
:103B200030E0CD5FDE4F39832883C350D14088CF4A
:103B30000E94700A3FEF631A730A87E068167104E7
:103B400081F491E0D91669F00E944D0D0E94FC08A5
:103B50008823E1F3DD24D394803209F0D12C712C39
:103B6000612CD5018D919C91A80EB91E11CF0E9498
:103B7000AA0C809144259091452561E070E0892B45
:103B8000A9F00E9487198C01892B09F0A1C08091AE
:103B90003F25882309F4BECE0E9408060E94B0305B
:103BA0006115710519F40EE010E092C080913F2577
:103BB000882309F4AFCE80E090E2909306048093CE
:103BC000050490930404809303049093020480936B
:103BD000010490939A258093992570933A256093D8
:103BE00039251092FE031092FD03109200041092EA
:103BF000FF0390CE0E94AA0C0E9487198C01892B8A
:103C000009F066C080913F25882309F483CE0E9485
:103C100008060E94B0306115710529F270933A25AB
:103C20006093392577CE0E94AA0C0E94AA0C72CE0E
:103C30000E94AA0C0E9487198C01892B09F048C0A8
:103C40008091442590914525849709F01EC60E94D5
:103C5000AA0C80913F25882361F00E94080620E08D
:103C600030E0A9010E94302C811103C081E08093D3
:103C7000FC038091FC03811111C68091392590913C
:103C80003A25892B09F00AC680913725909138256D
:103C9000892B09F003C68091442590914525009712
:103CA00009F0E2C510E000E080913B2590913C25B1
:103CB000019690933C2580933B2520913D253091A2
:103CC0003E258217930721F00115110509F466CDF1
:103CD000C801C05EDE4F0FB6F894DEBF0FBECDBF89
:103CE000DF91CF911F910F91FF90EF90DF90CF90D8
:103CF000BF90AF909F908F907F906F905F904F900C
:103D00003F902F9008950E94AA0C00914425109195
:103D100045250130110509F0F3CD80910904811189
:103D2000EFCDDD2029F06AE074E0C1010E94733319
:103D30000E94AA0C80914425909145250E9709F088
:103D4000DFCD0E94AA0C0E948719009709F0CBC012
:103D500080913F25882351F00E940806CF5EDE4FF8
:103D6000688379838A839B83C151D14080914425A4
:103D7000909145258B9709F0C3CD0E94AA0C0E9413
:103D80008719009709F0AFC080913F25882351F033
:103D90000E940806CB5EDE4F688379838A839B830B
:103DA000C551D1408091442590914525412C512CFD
:103DB000F0E86F2EFFE37F2E8C9781F40E94AA0C0F
:103DC0000E948719009709F08EC080913F258823B3
:103DD00009F44FCF0E9408062B013C0180913F253A
:103DE000882309F446CFE0913B25F0913C25CD5F37
:103DF000DE4FF983E883C350D140809048259090EE
:103E00004925F10101900020E9F731977F01E2187F
:103E1000F3086701F4E1CF0ED11C63E070E0C1014B
:103E20000E94FE0F2091992530919A25A0900704B9
:103E3000B0900804009779F0DC014D915C91240F5B
:103E4000351F2C193D092A153B0518F40AE010E02E
:103E50003FCF0E94C70BE0919925F0919A25EC196C
:103E6000FD09EA15FB0594F3F0939A25E093992553
:103E7000E95CFA4FD182C0826F01B3E0CB0ED11C56
:103E800082E08283B101C6010E947333EFEFEE1A24
:103E9000FE0AF601EE0DFF1DCF5EDE4F888199818F
:103EA000AA81BB81C151D14080839183A283B38316
:103EB0004482558266827782CB5EDE4F888199810B
:103EC000AA81BB81C551D14080879187A287B387E2
:103ED00095868486CD5FDE4FA881B981C350D140DD
:103EE000B787A687C6CE8C01F3CE0E94AA0C00919C
:103EF0004425109145250130110509F001CD80912F
:103F000009048111FDCCDD2009F4BBC063E070E041
:103F10008AE094E00E94FE0F009709F4B5C0FC010E
:103F20002281CC24CA94DC2CEFE7EE2EFE2C22302A
:103F3000A9F5EAE0F4E001900020E9F7E750F44049
:103F4000E80FF91F80819181A281B381CB5FDE4FA1
:103F500088839983AA83BB83C550D140C480D58010
:103F6000E680F78080859185A285B385C35FDE4FAB
:103F700088839983AA83BB83CD50D140A485B5851E
:103F8000C15EDE4FB983A883CF51D14026853785E6
:103F9000C35EDE4F39832883CD51D1402FEF3FEFF1
:103FA0004FE75FE7CB5FDE4F688179818A819B8134
:103FB000C550D1400E94302C882309F465C02FEFF2
:103FC0003FEF4FE75FE7C701B6010E94302C88231F
:103FD00009F45DC0A7019601CB5FDE4F688179814E
:103FE0008A819B81C550D1400E945D2F4B015C01AD
:103FF000BC01A4018AE094E00E94351020E030E08A
:10400000A901C701B6010E949D3187FD0EC0C35FA3
:10401000DE4F288139814A815B81CD50D140C50175
:10402000B4010E94302C1816BCF420E030E0A90145
:10403000C701B6010E94302C87FF23C0C35FDE4F4B
:10404000288139814A815B81CD50D140C501B401BD
:104050000E949D3187FD15C0C15EDE4F8881998128
:10406000CF51D14090933A2580933925C35EDE4FDE
:1040700088819981CD51D1400196909338258093C4
:1040800037250E94AA0CF5CD0CE010E021CE00E10E
:1040900010E01ECE0E94AA0C0E9487198C01892B69
:1040A00009F016CE80913F25882309F433CC0E9475
:1040B00008060E94B0306115710509F474CD709343
:1040C0003A25609339252091992530919A257901D7
:1040D00094E0E91AF1088091070490910804E81629
:1040E000F9060CF4B3CEC0903B25D0903C25A090AF
:1040F0004825B09049250091010410910204C9019E
:10410000895C9A4FA801421B530BBC0104970E9483
:104110003333F0929A25E0929925045011091093B7
:104120000204009301041093040400930304F801B3
:10413000E95CFA4FB182A082D382C282EBCB0E94AB
:10414000AA0C00914425109145250130110509F074
:10415000D7CBDD2029F06AE074E0C1010E947333FF
:10416000A0910904CD5FDE4FA883C350D1400E94C7
:10417000AA0C0E9497192C01009709F0F2C08091B7
:104180003F25882309F475CDF10101900020E9F75E
:1041900031979F0122193309C75FDE4F3983288386
:1041A000C950D1402A5F3F4FC75EDE4F3983288315
:1041B000C951D1400E9408060E94A9306B01C55F19
:1041C000DE4F79836883CB50D14080910704909172
:1041D0000804C55EDE4F99838883CB51D140B12C52
:1041E000A12C88248394912CC55FDE4FA881B981CE
:1041F000CB50D140AA16BB0684F40E9408060E9448
:10420000A930F401E69F4001E79F900CF69F900CC7
:104210001124FFEFAF1ABF0AE7CF5601AA0CBB1C4F
:10422000CD5FDE4F2881C350D14081E090E0211165
:1042300002C084E090E0889E3001899E700C989EB8
:10424000700C1124C75EDE4F88819981C951D1401D
:10425000A80EB91EA60CB71CCD5FDE4F9881C350C7
:10426000D14060E170E0911102C064E070E0C101F2
:104270000E94FE0F8090070490900804009789F038
:104280002091992530919A252A193B09DC014D91FD
:104290005C91240F351F2815390508F4D7CD0E94ED
:1042A000C70BE0919925F0919A25EA19FB09E815C9
:1042B000F9050CF4CBCDF0939A25E0939925E95CB0
:1042C000FA4FB182A082CD5FDE4FB881C350D1409A
:1042D00080E1B11101C084E04F0123E0820E911C06
:1042E0008283B101C4010E947333C75FDE4F8881AE
:1042F0009981C950D1400196880E991ED401CD9262
:10430000DD924D01C55EDE4FE881F981CB51D14090
:10431000F0930804E09307045D01C55FDE4F288138
:104320003981CB50D1404216530664F40E940806EE
:104330000E94A930D5016D937D935D01BFEF4B1AAB
:104340005B0AEBCFD7FE02C0D12CC12CCC0CDD1CFC
:10435000A30170E060E0C4018C0D9D1D0E944533F7
:1043600088CC8C01B5CC0E94AA0C0E9487198C01C4
:10437000892B09F0ADCC80913F25882309F4CACA66
:104380000E9408060E94A93097FF03C008E110E0D0
:104390009FCC0E948905BECA0E94AA0C8091442528
:1043A00090914525ECE3EE16F10409F03FC08A3008
:1043B0009105E1F50E94AA0C90E081E020913F2553
:1043C000222309F4A7CA9111A5CA2CE3E216F1042D
:1043D00009F042C06CEF811101C060E090E080E024
:1043E0000E94DB2E6091972581E090E00E94DB2EF9
:1043F0006091982582E090E00E94DB2E47E3E42E56
:1044000045E0F42E10E000E08091972590919825EA
:10441000081719070CF07ECAD7016D917D01C801FC
:1044200003960E94DB2E0F5F1F4FEECF009791F097
:10443000449781F00E947B198C019F70892B09F0B1
:1044400047CC0027107F0115104109F021C291E0EF
:1044500080E0B4CF90E0FCCFBDE3EB16F10409F0AF
:1044600020C20E941E0A81E090E00E94D32EC82E36
:1044700082E090E00E94D32ED82ED0929825C09250
:10448000972537E3E32E35E0F32E10E000E00C151E
:104490001D050CF03FCAC80103960E94D32EF701F8
:1044A00081937F010F5F1F4FF2CF0E94AA0C0E94E1
:1044B00087198C01892B09F00BCC80913F2588232B
:1044C00009F428CA0E9408060E94A9306A307105C2
:1044D00008F05CCFDB0120E030E30E94FA326B0190
:1044E0007C010E943207C701B601705F8F4F9F4F5A
:1044F0000E94320726013701F0E25F0E611C711C39
:10450000C301B2010E94320707E315E027E3A22EA0
:1045100025E2B22EFE013196D8018D918193CF5FB5
:10452000DE4F28813981C150D1402E173F07A9F7AE
:10453000A101C701B6010E94B2073FEFD31AE30AF7
:10454000F30A1395A016B10629F70091972510914B
:10455000982509831A83A101C301B2010E94B20701
:10456000B801110F880B990B0E94E50AD3C90E946C
:10457000AA0C0E9487198C01892B09F0A9CB809184
:104580003F25882309F4C6C90E9408060E94A93065
:104590006B018AE0C816D10408F0F8CE0E941E0A0A
:1045A000D60120E030E30E94FA324B015C010E9408
:1045B0009007C501B401705E8F4F9F4F0E94900716
:1045C000082FC501B4016F5F7F4D8F4F9F4F0E9431
:1045D0009007182F109398250093972597E3E92EBD
:1045E00095E0F92EC70187539540801791070CF08D
:1045F000B7CFC501B4010E949007D7018D937D010B
:10460000BFEF8B1A9B0AAB0ABB0AECCF0E94AA0C25
:104610000E9487198C01892B09F05ACB809144257F
:1046200090914525469709F06BC90E94AA0C0E94FB
:1046300087198C01892B09F04BCB80913F2588236A
:1046400009F468C90E9408060E94A930D62EC72E18
:10465000062F172F0E9408060E94A930CB01E9E31C
:10466000EE16F10411F1FAE3EF16F10409F445C076
:104670006032710514F08FE190E097FF02C090E086
:1046800080E09093200580931F058D2D9C2D883010
:10469000910514F087E090E097FF02C090E080E081
:1046A00090931E0580931D0535C99B013327F901A1
:1046B000EB5EF94F8491F901E452F74FE490F90170
:1046C000E854F74FF490FF2009F424C981110E94A7
:1046D000C304EF2DF0E0EE0FFF1FEC57F74FA5914D
:1046E000B4918FB7F894EC91012B29F4E094EE2269
:1046F000EC928FBF0FC9EE2AFBCF6D2D0E942805CB
:1047000009C90E94AA0CDD2009F404C92FE2E216AF
:10471000F10409F470C0FCF480E2E816F10409F435
:1047200070C092E2E916F10409F0F4C88091FF0329
:1047300090910004009709F4EDC890933A25809376
:1047400039258091FD039091FE03019690933825C1
:1047500080933725DFC8A6E3EA16F10409F464C0A4
:10476000B9E4EB16F10409F462C0E1E3EE16F104DA
:1047700009F0D0C8E0910304F0910404809105048D
:1047800090910604E817F90709F485C0E95CFA4F2F
:10479000A080B180C280D3800091010410910204F6
:1047A000E0909925F0909A25C701895C9A4FA8015D
:1047B0004E195F09BC0104960E943333F4E0EF0EFA
:1047C000F11CF0929A25E09299250C5F1F4F1093EF
:1047D0000204009301041093040400930304B092B4
:1047E0003A25A09239252FEFC21AD20AD092382545
:1047F000C09237258FC80E941E0A81E08093FC0377
:1048000089C8809148259091492590930004809310
:10481000FF0380913B2590913C259093FE0380936C
:10482000FD0301E110E054CA0E94050A5EC888E257
:104830000E942B0880E10E942B0810927A00529867
:104840005A9AEA98809169008F7C80936900E29A75
:10485000EA9A83B7817F846083BF83B7816083BF17
:1048600088950E94760F56C8012B09F41BCA4497FD
:1048700049F40E94AA0C8091442590914525892BEA
:1048800009F010CA0DE010E00FCA02E110E020CAE2
:1048900008E010E01DCA03E110E01ACA10E000E0D1
:1048A00017CA0DE010E014CA1F920F920FB60F92B4
:1048B00011242F933F938F939F93AF93BF93809136
:1048C000230590912405A0912505B09126053091EE
:1048D000220523E0230F2D3758F50196A11DB11DA8
:1048E000209322058093230590932405A09325050A
:1048F000B09326058091270590912805A091290560
:10490000B0912A050196A11DB11D809327059093B2
:104910002805A0932905B0932A05BF91AF919F91D7
:104920008F913F912F910F900FBE0F901F90189570
:1049300026E8230F0296A11DB11DD2CF1F920F9220
:104940000FB60F9211248F939F9380912E05909113
:104950002F0590938500809384009091130481E04B
:10496000911180E08093130481E0809314049F915F
:104970008F910F900FBE0F901F9018951F920F925E
:104980000FB60F9211248F9383B78E7F83BF8F91C1
:104990000F900FBE0F901F901895789484B5826089
:1049A00084BD84B5816084BD85B5826085BD85B5D3
:1049B000816085BD80916E00816080936E00109251
:1049C00081008091810082608093810080918100CC
:1049D000816080938100809180008160809380005D
:1049E0008091B10084608093B1008091B0008160BB
:1049F0008093B000809191008260809391008091BB
:104A000091008160809391008091900081608093FB
:104A100090008091A10082608093A1008091A1000C
:104A200081608093A1008091A00081608093A000AC
:104A30008091210182608093210180912101816018
:104A400080932101809120018160809320018091D9
:104A50007A00846080937A0080917A0082608093EB
:104A60007A0080917A00816080937A0080917A0048
:104A7000806880937A001092C10062E082E00E9418
:104A8000280582E08093390180EC80937C0087E8E0
:104A900080937A0010927B0084E58093770087E909
:104AA00080937A0080917A00806480937A0087EE08
:104AB00080932D0586ED80932C0582EA80932B054B
:104AC00061E080EB0E94FD0661E080EB0E94B70888
:104AD00080E58CBD81E08DBD8DB58EB561E081EB4B
:104AE0000E94B70861E082EB0E94B708C0912D05D3
:104AF00061E08C2F0E94B70861E083ED0E94B70847
:104B000061E08C2F0E94FD0661E080912C050E94DF
:104B1000B708C0912B0561E08C2F0E94B70861E0B7
:104B20008C2F0E94FD0662E370E080E090E00E941E
:104B3000890560E08C2F0E94FD0665E070E080E052
:104B400090E00E94890561E08C2F0E94FD0666E9D5
:104B500070E080E090E00E9489050E94760F0E943C
:104B6000C8090E94C8090E941E0A0E94C809F89438
:104B700010928000109281008EEE95E890932F05A0
:104B800080932E059093850080938400809181000E
:104B900084608093810080916F00816080936F00BA
:104BA00078940E94050A80E099E00E94560B80915B
:104BB000992590919A252091972530919825821BCF
:104BC000930B0E94640B0E944D0D9AE4C92E95E24E
:104BD000D92E0E94B00EFC0120812F33C1F4218117
:104BE000211115C08091992590919A2520919725A2
:104BF00030919825821B930B0E94640B0E944D0DEF
:104C000080E090E0892B29F30E940000E2CF90938E
:104C1000350580933405D0923305C09232058DE47A
:104C200090E090933105809330050E948C10EC0148
:104C30000097D9F30CF008C10E94700AD092472562
:104C4000C09246250E94AA0C80914425909145254A
:104C5000029709F043C060914025709141258091F1
:104C60004225909143250E94A93061157105E1E02C
:104C70008E0791050CF05FC17B01A0904625B09096
:104C800047250E94AA0C10923F2510923E251092B3
:104C90003D250E949D1BEC01892B09F0D5C0E11434
:104CA000F10409F46CC0409046255090472540918E
:104CB0009725509198259A01295C3A4FC7E3D5E092
:104CC000C217D30708F058C08A809B808E149F04B7
:104CD00050F488819981C80FD91FF2CFB12CA12C33
:104CE000F12CE12CD0CFE814F90489F468817981A2
:104CF000461B570B5093982540939725495C5A4F74
:104D00004C1B5D0B6C0F7D1FCE010E943333F501F0
:104D10008081882309F474CF4A185B083201F4E0DB
:104D20006F0E711C40919725509198251301240E08
:104D3000351E8091992590919A25821593050CF442
:104D4000FDC0892851F0495C5A4F4C1B5D0BBE01D8
:104D5000CE01860D971D0E94333379826882FB82D3
:104D6000EA82A201B501CE0104960E942A33309254
:104D700098252092972544CF912C812CC8CFD09292
:104D80004725C092462521E020933F2510924925D2
:104D9000109248250E94AA0C10923C2510923B25A7
:104DA00080913D2590913E25892B59F010923F2509
:104DB0000E949D1B81E080933F2510923E2510921A
:104DC0003D250E949D1BEC01892BF1F58091392531
:104DD00090913A252091482530914925232B09F0BF
:104DE0004DC0009739F42091372530913825232B79
:104DF00009F406CF2091482530914925232B09F04D
:104E00004CC0009709F051C02091372530913825CA
:104E1000232B09F444C0D0924725C09246258091A7
:104E2000372590913825009721F090933E25809367
:104E30003D250E94FC08882309F4ACCF80933605F9
:104E40008B31B9F7CFE0D0E00E94700A609148251D
:104E5000709149256115710539F090E080E00E945C
:104E6000E50A8DE20E949C0AFE01EE0FFF1FE25F41
:104E7000F64F859194910E94560BC2CE009709F08F
:104E8000B9CF2091372530913825232B09F4B2CFA3
:104E90001092492510924825ADCF009731F420910A
:104EA000372530913825232BB1F02091972530916B
:104EB0009825295C3A4F07E315E00217130780F4A1
:104EC000F801428153814817590750F440815181BC
:104ED000040F151FF2CFF80120813181020F131F3B
:104EE0002091972530919825295C3A4F0217130796
:104EF00009F486CEF801228133813093492520932D
:104F00004825A8014C5F5F4F5093472540934625A5
:104F1000009709F484CF4091372550913825452BCF
:104F200009F47DCF8217930708F079CF10923825C6
:104F30001092372574CFC9E0D0E086CFCAE0D0E028
:104F400083CFCF92DF92EF92FF920F931F93CF9375
:104F5000DF93EA01E22EF02E122F27E02E1508F43F
:104F600017E000E0212FAE010E94272B9881292F06
:104F70002870DE0190FF39C0211137C011962DE253
:104F800028836EEE71E092FD39C0FD0131962981D2
:104F90002C93213309F09F7EEE20C1F0AE014E5FCD
:104FA0005F4F6F01312F2EE2DA016D91AD01D60115
:104FB0002D936D013150262FB9F7AFEFA10FAE0F32
:104FC000BF2FB11DFD01329611966C9325E4F2FEC0
:104FD00025E6208387FF28C09DE29183819590E399
:104FE0008A304CF19F5F8A50FBCFF1FE18C01196BA
:104FF0003BE2388366EF71E0222319F2F2FE02C031
:105000006C5F7F4FCD010E94112CCE01DF91CF91BB
:105010001F910F91FF90EF90DF90CF900895F0FED9
:10502000E9CF119630E2E5CF81110AC094FF08C0A4
:105030009DE2918390E39283805D83831482E5CF28
:105040009BE29183CCCFEF920F931F93CF93DF938B
:10505000E80134E047FD34E1042E000C550B57FF06
:1050600003C0519541955109E32E022F242FAE0123
:105070000E94032DCE01DF91CF911F910F91EF90F0
:1050800008958F929F92AF92BF92CF92DF92EF924C
:10509000FF92CF93DF93EC01688179818A819B81B4
:1050A000611571058105910521F464E279ED8BE5C7
:1050B00097E02DE133EF41E050E00E941B2F4901C2
:1050C0005A019B01AC01A7EAB1E40E943A2F6B019F
:1050D0007C01ACEEB4EFA50194010E94482FDC01E5
:1050E000CB018C0D9D1DAE1DBF1DB7FF03C00197E9
:1050F000A109B04888839983AA83BB839F77DF91F6
:10510000CF91FF90EF90DF90CF90BF90AF909F90A6
:105110008F9008950C94412884EB92E00C944128E0
:10512000B0E0A0E08093B4029093B502A093B602E1
:10513000B093B70208958F929F92AF92BF92CF9291
:10514000DF92EF92FF920F931F93CF93DF935C0157
:105150007B016115710519F0DB018D939C9385012D
:105160000F5F1F4FF501D0818D2F90E00E94FF2B24
:105170006C01892BB9F5DD32B9F50F5F1F4FD501F1
:105180001196DC91C1E05801F1E0AF1AB10843E09B
:1051900050E066E072E0C5010E94182C892B69F589
:1051A000680182E0C80ED11C45E050E061E072E089
:1051B000C6010E94182C892B21F4680197E0C90EC2
:1051C000D11CE114F10419F0D701CD92DC9260E01A
:1051D00070E080E89FEFC111FFC060E070E080E800
:1051E0009FE7FAC05801BBCFDB3229F485010E5F7F
:1051F0001F4FF501D181C0E0C6CF43E050E06EEF14
:1052000071E0C5010E94182C892BE9F0F80110E02B
:1052100000E020E030E0A9015F01B0ED8B2E8D0EA3
:1052200089E08815C8F19C2E689491F88C2F8870BD
:10523000C2FF16C0811102C00F5F1F4F3196D5010A
:10524000DC91C92DE9CFE114F10429F00E5F1F4F65
:10525000F7011183008360E070E080EC9FE7BCC041
:10526000882311F001501109A5E0B0E00E943A2F07
:105270009B01AC01220F331F441F551F280D311D08
:10528000411D511D283999E93907490799E1590705
:10529000A8F2C6609C2ED2CFAEEF8A1206C0C3FD24
:1052A0003CC09C2E689493F8C9CFDF7DD534A9F516
:1052B00080818D3239F4C061DF011296818162E014
:1052C00070E006C0DF018B32C1F3119661E070E03F
:1052D00080535D01A61AB70A8A30F8F4E0E8CE16CA
:1052E000ECE0DE065CF4B601660F771F660F771FF1
:1052F000C60ED71ECC0CDD1CC80ED11C5D01FFEF05
:10530000AF1ABF0A8C9180538A30A8F1C4FF03C042
:10531000D194C194D1080C0D1D1DC1FF09C0E11429
:10532000F10431F081E0A81AB108D701AD92BC9226
:10533000CA01B9010E94352CC370C33009F49058DA
:105340004B015C0120E030E0A9010E94302C882351
:1053500009F440C0C5E3D2E017FF05C011950195DF
:105360001109CDE1D2E06E01B8E1CB1AD10880E29B
:10537000E82EF12C0FC0D501B1CFFE01259135915A
:10538000459154910E191F09C501B4010E94962C34
:105390004B015C01D501C4010E151F0574F724975C
:1053A000F594E794CC16DD06A9F78A2F880F8B2F8A
:1053B000881F8F3F49F020E030E0A901C501B4010A
:1053C0000E94302C811106C082E290E090939C25CF
:1053D00080939B25C501B401DF91CF911F910F915F
:1053E000FF90EF90DF90CF90BF90AF909F908F9005
:1053F00008953F924F925F926F927F928F929F9209
:10540000AF92BF92CF92DF92EF92FF920F931F93D2
:10541000CF93DF935C016B017A016115710519F07F
:10542000FB0191838083E114F10451F0C7010297DD
:10543000839730F040E030E020E090E06BC05E0108
:10544000E5012196F5011081812F90E00E94FF2B4C
:10545000892BA9F71D3201F52196F501118101E093
:10546000E114F10409F4E6C0F0E1EF16F10409F0EB
:1054700088C0103359F488818F7D883509F07CC04D
:10548000198122960260F0E1EF2EF12C812C912CF3
:10549000A12C88E0B82E92C01B3221F4E50122969F
:1054A000F501118100E0DCCFEAE0EE16F10409F429
:1054B000C7C0F0E1EF16F10409F073C0E7CF78E060
:1054C000E72EF12C812C912CA12C60E1B62E76C018
:1054D00021E0ADC0302F3170C114D10431F022234E
:1054E00071F12197F601D183C08327FF2EC060E0C0
:1054F00070E080E090E8311104C06FEF7FEF8FEF34
:105500009FE722E230E030939C2520939B25462F95
:10551000372F282F642F732F822FDF91CF911F9168
:105520000F91FF90EF90DF90CF90BF90AF909F9042
:105530008F907F906F905F904F903F90089501FF04
:1055400004C02297F601D183C083332341F09095A4
:105550008095709561957F4F8F4F9F4FD8CF97FF64
:10556000D6CF82E290E090939C2580939B256FEFAD
:105570007FEF8FEF9FE7CBCF10E3E114F10409F445
:105580009ECF28E0E216F10409F49CCF0CF08CCFFA
:10559000812C912CA12CE0E4BE2E82E0E816F104CF
:1055A00069F060E070E080E090E897010F2C000C5B
:1055B000440B550B0E94F92E49015A0120E060E08E
:1055C00070E0CB0127010F2C000C66087708FE0164
:1055D00050ED352E310E39E0331570F43FEB310FBD
:1055E00049EC342E3A3138F03FE9310F3A3108F0C6
:1055F00071CF39EA332E310E3E141F040CF06ACFFE
:1056000027FD15C086169706A806B90678F0A301EF
:1056100092010E94E92E630D711D811D911D613063
:105620007105810520E8920708F452CF2FEF2196EB
:105630001081CDCF103309F41ECF2AE0E22EF12CD9
:105640009CEC892E982CA82C9CE0B92EB7CF283042
:1056500008F027E03327DA01990F311D87FD9160AB
:1056600000966105710539F432602E5F3D9330E399
:105670002A95E1F708959F3F30F080387105610564
:1056800009F03C5F3C5F3D93913008F08068911DCC
:10569000DF93CF931F930F93FF92EF92192F987F71
:1056A0009695E92F96959695E90FFF27ED56FD4FB4
:1056B00099273327EE24FF24A701E70105900894DA
:1056C000079428F4360FE71EF81E491F511D660F78
:1056D000771F881F991F0694A1F70590079428F457
:1056E000E70EF81E491F561FC11D770F881F991F0F
:1056F000661F0694A1F70590079428F4F80E491F39
:10570000561FC71FD11D880F991F661F771F06944C
:10571000A1F70590079420F4490F561FC71FD81F03
:10572000990F661F771F881F0694A9F7849110951B
:10573000177041F0D695C79557954795F794E7941C
:105740001A95C1F7E9E3F2E0689415901591359147
:105750006591959105907FE27395E118F10A430BED
:10576000560BC90BD009C0F7E10CF11E431F561FA1
:10577000C91FD01D7EF4703311F48A95E6CFE894EA
:10578000015030F0080F0AF40027021708F4202F08
:105790002395022F7A3328F079E37D932A95E9F750
:1057A00010C07D932A9589F606949795679537954D
:1057B00017951794E118F10A430B560BC90BD00942
:1057C00098F023957E9173957A3308F070E37C937B
:1057D0002013B8F77E9170617D9330F0839571E36B
:1057E0007D9370E32A95E1F71124EF90FF900F91DC
:1057F0001F91CF91DF91992787FD90950895911181
:105800000C947F2E803219F089508550C8F7089586
:10581000FB01DC0102C005900D9241505040D8F7C9
:105820000895FB01DC0105900D920020E1F7089539
:10583000FB01DC014150504088F08D9181341CF017
:105840008B350CF4805E659161341CF06B350CF483
:10585000605E861B611171F3990B0895881BFCCF64
:105860000E94722C08F481E00895E89409C097FB27
:105870003EF490958095709561957F4F8F4F9F4F27
:105880009923A9F0F92F96E9BB279395F69587956B
:1058900077956795B795F111F8CFFAF4BB0F11F42E
:1058A00060FF1BC06F5F7F4F8F4F9F4F16C08823D5
:1058B00011F096E911C0772321F09EE8872F762F0B
:1058C00005C0662371F096E8862F70E060E02AF04C
:1058D0009A95660F771F881FDAF7880F9695879538
:1058E00097F90895990F0008550FAA0BE0E8FEEF0D
:1058F00016161706E807F907C0F012161306E40794
:10590000F50798F0621B730B840B950B39F40A268C
:1059100061F0232B242B252B21F408950A2609F46A
:10592000A140A6958FEF811D811D08950E94A92C8D
:105930000C94992E0E948B2E38F00E94922E20F00B
:10594000952311F00C94822E0C94882E11240C9423
:10595000CD2E0E94AA2E70F3959FC1F3950F50E0B3
:10596000551F629FF001729FBB27F00DB11D639F11
:10597000AA27F00DB11DAA1F649F6627B00DA11DB7
:10598000661F829F2227B00DA11D621F739FB00D5D
:10599000A11D621F839FA00D611D221F749F3327CD
:1059A000A00D611D231F849F600D211D822F762F66
:1059B0006A2F11249F5750409AF0F1F088234AF043
:1059C000EE0FFF1FBB1F661F771F881F91505040AF
:1059D000A9F79E3F510580F00C94822E0C94CD2E99
:1059E0005F3FE4F3983ED4F3869577956795B79536
:1059F000F795E7959F5FC1F7FE2B880F911D969550
:105A0000879597F908958F929F92AF92BF92CF9208
:105A1000DF92EF92FF920F931F93CF93DF93CDB757
:105A2000DEB729970FB6F894DEBF0FBECDBF6A016F
:105A3000F22EB02E102FFBE3AF2EA01608F41BE3BE
:105A40001F5F012F27E0AE014F5F5F4F0E94272BA2
:105A5000BC018981982F9970913009F44EC09BE266
:105A6000E1FC04C09E2D9170E0FC49C05E2D507198
:105A7000E82FE87083FF55C084E0911101C083E0F6
:105A8000EF2DE81B8F1508F0E0E0D6018E2F20E205
:105A90005523C9F1992329F0D6019C93C60101969B
:105AA0006C0196012D5F3F4FE2FE33C08EE4D601BC
:105AB0008C9391E411969C93119712968C93D90133
:105AC0008E2F90E281112AC0E20FF32FF11D108278
:105AD0008EEF9FEF29960FB6F894DEBF0FBECDBFB5
